:100000000C9462000C948A000C948A000C948A0070
:100010000C948A000C948A000C948A000C948A0038
:100020000C948A000C948A000C948A000C948A0028
:100030000C948A000C948A000C948A000C948A0018
:100040000C9457030C948A000C948A000C948A0038
:100050000C948A000C948A000C948A000C948A00F8
:100060000C948A000C948A000000000024002700F1
:100070002A0000000000250028002B0000000000DE
:1000800023002600290004040404040404040202DA
:100090000202020203030303030301020408102007
:1000A0004080010204081020010204081020000012
:1000B0000007000201000003040600000000000029
:1000C0000000C30211241FBECFEFD8E0DEBFCDBFBA
:1000D00011E0A0E0B1E0E6E8F9E002C005900D9281
:1000E000A031B107D9F711E0A0E1B1E001C01D9244
:1000F000AC32B107E1F710E0C4ECD0E004C02297C5
:10010000FE010E94BD04C23CD107C9F70E94D6027D
:100110000C94C1040C9400000F931F938C01FC01FC
:10012000848160E00E94180481E090E00E94AD03A9
:10013000F801848161E00E94180481E090E00E944F
:10014000AD03F801848160E00E94180484E690E029
:100150000E94AD031F910F910895CF92DF92EF920D
:10016000FF920F931F93CF93DF93D82EC92E282F82
:10017000392FC9018C01C0E0D0E0E62EFF24F80140
:10018000858161E00E94F203B7010C2E02C07595D3
:1001900067950A94E2F76170F80185810E9418045E
:1001A00021960F5F1F4FC830D10549F78D2D9C2D2B
:1001B0000E948C00DF91CF911F910F91FF90EF90E3
:1001C000DF90CF900895CF92DF92EF92FF920F933E
:1001D0001F93CF93DF93D82EC92E282F392FC90113
:1001E0008C01C0E0D0E0E62EFF24F801858161E0BB
:1001F0000E94F203B7010C2E02C0759567950A9410
:10020000E2F76170F80185810E94180421960F5F62
:100210001F4FC430D10549F78D2D9C2D0E948C00B5
:10022000DF91CF911F910F91FF90EF90DF90CF90D2
:1002300008951F93CF93DF93EC01162F8A81642FCB
:100240000E9418048B818F3F19F060E00E9418040F
:100250008D8584FF05C0CE01612F0E94AD000EC0C8
:10026000612F70E084E0759567958A95E1F7CE017E
:100270000E94E300CE01612F0E94E300DF91CF9145
:100280001F91089541E00E941901089540E00E94E5
:1002900019010895FC016685862F846086876C604D
:1002A000CF010E944601089561E00E94460180ED61
:1002B00097E00E94AD030895CF93DF93EC014230A5
:1002C00018F08D8588608D87498B1A8A222329F042
:1002D000413019F48D8584608D8780E593EC0E9410
:1002E000AD038A8160E00E9418048C8160E00E9466
:1002F00018048B818F3F19F060E00E9418046D850F
:1003000064FD1DC0CE0163E00E94E30084E991E139
:100310000E94AD03CE0163E00E94E30084E991E115
:100320000E94AD03CE0163E00E94E30086E990E005
:100330000E94AD03CE0162E00E94E30016C060623D
:10034000CE010E94460184E991E10E94AD036D85D2
:100350006062CE010E94460186E990E00E94AD03F2
:100360006D856062CE010E9446016D856062CE019E
:100370000E94460184E08E87CE010E944A01CE0190
:100380000E94540182E08F87CE0166E00E94460100
:10039000DF91CF9108956F927F928F92AF92CF921B
:1003A000EF920F931F93DF93CF93CDB7DEB73C014E
:1003B000162F842FF301428323830483E582C682B0
:1003C000A78280869D8591879E8592879F8593874A
:1003D0009889948761E00E94F203F30183818F3F43
:1003E00019F061E00E94F203F301848161E00E9450
:1003F000F203112319F0F301158603C080E1F30124
:100400008587C30160E141E020E00E945C01CF915B
:10041000DF911F910F91EF90CF90AF908F907F90D1
:100420006F9008958F92AF92CF92EF920F931F9398
:10043000CF93DF93DC01362F542F722F102FAE2C69
:100440008C2C84E091E011969C938E9300D000D088
:10045000EDB7FEB73196CDB7DEB7198211821282A1
:100460001382CD0161E0432F2FEF052FE72EC12E20
:100470000E94CB010F900F900F900F90DF91CF91C2
:100480001F910F91EF90CF90AF908F900895FF92B2
:100490000F931F93CF93DF93EC01F62E8A010E94F6
:1004A0009F03F8012081318142815381621B730BCC
:1004B000840B950B673971058105910558F0FF2074
:1004C00049F08981833010F0883018F48F5F898378
:1004D00001C01982DF91CF911F910F91FF90089574
:1004E000EF92FF920F931F93DF93CF9300D000D032
:1004F000CDB7DEB77C018BE00E946C04019729F038
:1005000080E00E946C04019719F50E949F036983A3
:100510007A838B839C838E010F5F1F4F05C0C701B9
:1005200061E0A8010E9447028BE00E946C040197E1
:10053000B1F306C0C70160E0A8010E94470203C0F2
:100540008E010F5F1F4F80E00E946C04019791F3B2
:100550000F900F900F900F90CF91DF911F910F91FF
:10056000FF90EF900895FC018081882319F084307A
:1005700028F40895CF010E94700208951082089512
:100580000E9454010895CF92EF920F9380E191E081
:1005900067E045E024E003E032E0E32ECC24C3949E
:1005A0000E9412020F91EF90CF900895EF92FF9268
:1005B0000F931F93DF93CF93CDB7DEB7C357D040D0
:1005C0000FB6F894DEBF0FBECDBF0E94B70380E127
:1005D00091E060E142E020E00E945C018AE061E09D
:1005E0000E94F20389E061E00E94F2038BE060E088
:1005F0000E94F20380E060E00E94F2038DE060E080
:100600000E94F2038CE060E00E94F20380E191E03E
:100610000E94C002DE011196EAE0F1E085E001905F
:100620000D928150E1F746E0E42EF12CEC0EFD1E18
:100630008E010F5F1F4FC801B7010E94B302FBCFAD
:100640000F931F93CF93DF938C01EB0109C0219689
:10065000D801ED91FC910190F081E02DC801099540
:1006600068816623A1F7DF91CF911F910F910895C3
:10067000EF92FF920F931F93CF93DF938C017B0137
:10068000EA010CC0D7016D917D01D801ED91FC917B
:100690000190F081E02DC80109952197209791F7ED
:1006A000DF91CF911F910F91FF90EF9008951F92CE
:1006B0000F920FB60F9211242F933F938F939F9316
:1006C000AF93BF938091270190912801A0912901B8
:1006D000B0912A0130912B010196A11DB11D232F4C
:1006E0002D5F2D3720F02D570196A11DB11D2093B0
:1006F0002B018093270190932801A0932901B093A7
:100700002A018091230190912401A0912501B091AB
:1007100026010196A11DB11D809323019093240110
:10072000A0932501B0932601BF91AF919F918F9126
:100730003F912F910F900FBE0F901F9018958FB77C
:10074000F89420912701309128014091290150917E
:100750002A018FBFB901CA010895019739F0880FA6
:10076000991F880F991F02970197F1F708957894C0
:1007700084B5826084BD84B5816084BD85B58260A6
:1007800085BD85B5816085BDEEE6F0E08081816044
:100790008083E1E8F0E01082808182608083808144
:1007A00081608083E0E8F0E0808181608083E1EB1C
:1007B000F0E0808184608083E0EBF0E08081816004
:1007C0008083EAE7F0E080818460808380818260BA
:1007D00080838081816080838081806880831092A3
:1007E000C1000895482F50E0CA0186569F4FFC0172
:1007F00024914A575F4FFA0184918823C1F0E82F72
:10080000F0E0EE0FFF1FE859FF4FA591B49166236A
:1008100041F49FB7F8948C91209582238C939FBFCD
:1008200008959FB7F8948C91822B8C939FBF089565
:10083000482F50E0CA0182559F4FFC012491CA0104
:1008400086569F4FFC0134914A575F4FFA019491AD
:10085000992309F440C0222331F1233021F48091FF
:1008600080008F7705C0243031F4809180008F7D27
:100870008093800018C0213019F484B58F7704C0AC
:10088000223021F484B58F7D84BD0DC0263021F443
:100890008091B0008F7705C0273029F48091B00097
:1008A0008F7D8093B000E92FF0E0EE0FFF1FEE5830
:1008B000FF4FA591B491662341F49FB7F8948C91B2
:1008C000309583238C939FBF08959FB7F8948C91A4
:1008D000832B8C939FBF0895682F70E0CB018255C6
:1008E0009F4FFC012491CB0186569F4FFC01449100
:1008F0006A577F4FFB019491992319F420E030E06F
:1009000038C0222331F1233021F4809180008F7789
:1009100005C0243031F4809180008F7D8093800069
:1009200018C0213019F484B58F7704C0223021F427
:1009300084B58F7D84BD0DC0263021F48091B00038
:100940008F7705C0273029F48091B0008F7D809388
:10095000B000892F90E0880F991F84589F4FFC01A9
:10096000A591B4918C9120E030E0842311F021E036
:1009700030E0C9010895EE0FFF1F0590F491E02DBE
:060980000994F894FFCF7A
:1009860000000000420120033803000001010000BE
:00000001FF
